{
  "contractName": "SimpleBank",
  "abi": [
    {
      "constant": true,
      "inputs": [
        {
          "name": "",
          "type": "address"
        }
      ],
      "name": "enrolled",
      "outputs": [
        {
          "name": "",
          "type": "bool"
        }
      ],
      "payable": false,
      "stateMutability": "view",
      "type": "function",
      "signature": "0x10eb0e0e"
    },
    {
      "constant": true,
      "inputs": [],
      "name": "owner",
      "outputs": [
        {
          "name": "",
          "type": "address"
        }
      ],
      "payable": false,
      "stateMutability": "view",
      "type": "function",
      "signature": "0x8da5cb5b"
    },
    {
      "inputs": [],
      "payable": false,
      "stateMutability": "nonpayable",
      "type": "constructor",
      "signature": "constructor"
    },
    {
      "payable": true,
      "stateMutability": "payable",
      "type": "fallback"
    },
    {
      "anonymous": false,
      "inputs": [
        {
          "indexed": false,
          "name": "accountAddress",
          "type": "address"
        }
      ],
      "name": "LogEnrolled",
      "type": "event",
      "signature": "0x990c442e6adb818b8fa7db3cf1023decd07f7b66e5306928c7ed527d974192bb"
    },
    {
      "anonymous": false,
      "inputs": [
        {
          "indexed": false,
          "name": "accountAddress",
          "type": "address"
        },
        {
          "indexed": false,
          "name": "amount",
          "type": "uint256"
        }
      ],
      "name": "LogDepositMade",
      "type": "event",
      "signature": "0xa8126f7572bb1fdeae5b5aa9ec126438b91f658a07873f009d041ae690f3a193"
    },
    {
      "anonymous": false,
      "inputs": [
        {
          "indexed": false,
          "name": "accountAddress",
          "type": "address"
        },
        {
          "indexed": false,
          "name": "withdrawAmount",
          "type": "uint256"
        },
        {
          "indexed": false,
          "name": "newBalance",
          "type": "uint256"
        }
      ],
      "name": "LogWithdrawal",
      "type": "event",
      "signature": "0xf9226daf630542048a23086c6af599511aac100ec8f532793cc9697d061bed7e"
    },
    {
      "constant": true,
      "inputs": [],
      "name": "balance",
      "outputs": [
        {
          "name": "",
          "type": "uint256"
        }
      ],
      "payable": false,
      "stateMutability": "view",
      "type": "function",
      "signature": "0xb69ef8a8"
    },
    {
      "constant": false,
      "inputs": [
        {
          "name": "accountAddress",
          "type": "address"
        }
      ],
      "name": "enroll",
      "outputs": [
        {
          "name": "",
          "type": "bool"
        }
      ],
      "payable": false,
      "stateMutability": "nonpayable",
      "type": "function",
      "signature": "0xba83d1a0"
    },
    {
      "constant": false,
      "inputs": [
        {
          "name": "_amount",
          "type": "uint256"
        }
      ],
      "name": "deposit",
      "outputs": [
        {
          "name": "",
          "type": "uint256"
        }
      ],
      "payable": false,
      "stateMutability": "nonpayable",
      "type": "function",
      "signature": "0xb6b55f25"
    },
    {
      "constant": false,
      "inputs": [
        {
          "name": "withdrawAmount",
          "type": "uint256"
        }
      ],
      "name": "withdraw",
      "outputs": [
        {
          "name": "",
          "type": "uint256"
        }
      ],
      "payable": false,
      "stateMutability": "nonpayable",
      "type": "function",
      "signature": "0x2e1a7d4d"
    }
  ],
  "bytecode": "0x608060405234801561001057600080fd5b5033600260006101000a81548173ffffffffffffffffffffffffffffffffffffffff021916908373ffffffffffffffffffffffffffffffffffffffff1602179055506106ad806100616000396000f3fe608060405260043610610078576000357c0100000000000000000000000000000000000000000000000000000000900463ffffffff16806310eb0e0e1461007d5780632e1a7d4d146100e65780638da5cb5b14610135578063b69ef8a81461018c578063b6b55f25146101b7578063ba83d1a014610206575b600080fd5b34801561008957600080fd5b506100cc600480360360208110156100a057600080fd5b81019080803573ffffffffffffffffffffffffffffffffffffffff16906020019092919050505061026f565b604051808215151515815260200191505060405180910390f35b3480156100f257600080fd5b5061011f6004803603602081101561010957600080fd5b810190808035906020019092919050505061028f565b6040518082815260200191505060405180910390f35b34801561014157600080fd5b5061014a610458565b604051808273ffffffffffffffffffffffffffffffffffffffff1673ffffffffffffffffffffffffffffffffffffffff16815260200191505060405180910390f35b34801561019857600080fd5b506101a161047e565b6040518082815260200191505060405180910390f35b3480156101c357600080fd5b506101f0600480360360208110156101da57600080fd5b81019080803590602001909291905050506104c4565b6040518082815260200191505060405180910390f35b34801561021257600080fd5b506102556004803603602081101561022957600080fd5b81019080803573ffffffffffffffffffffffffffffffffffffffff1690602001909291905050506105c8565b604051808215151515815260200191505060405180910390f35b60016020528060005260406000206000915054906101000a900460ff1681565b6000816000803373ffffffffffffffffffffffffffffffffffffffff1673ffffffffffffffffffffffffffffffffffffffff1681526020019081526020016000205410151515610347576040517f08c379a00000000000000000000000000000000000000000000000000000000081526004018080602001828103825260108152602001807f6e6f7420656e6f7567682065746865720000000000000000000000000000000081525060200191505060405180910390fd5b6000829050806000803373ffffffffffffffffffffffffffffffffffffffff1673ffffffffffffffffffffffffffffffffffffffff1681526020019081526020016000206000828254039250508190555060008060003373ffffffffffffffffffffffffffffffffffffffff1673ffffffffffffffffffffffffffffffffffffffff1681526020019081526020016000205490507ff9226daf630542048a23086c6af599511aac100ec8f532793cc9697d061bed7e338583604051808473ffffffffffffffffffffffffffffffffffffffff1673ffffffffffffffffffffffffffffffffffffffff168152602001838152602001828152602001935050505060405180910390a18092505050919050565b600260009054906101000a900473ffffffffffffffffffffffffffffffffffffffff1681565b60008060003373ffffffffffffffffffffffffffffffffffffffff1673ffffffffffffffffffffffffffffffffffffffff16815260200190815260200160002054905090565b600080829050806000803373ffffffffffffffffffffffffffffffffffffffff1673ffffffffffffffffffffffffffffffffffffffff168152602001908152602001600020600082825401925050819055507fa8126f7572bb1fdeae5b5aa9ec126438b91f658a07873f009d041ae690f3a1933382604051808373ffffffffffffffffffffffffffffffffffffffff1673ffffffffffffffffffffffffffffffffffffffff1681526020018281526020019250505060405180910390a16000803373ffffffffffffffffffffffffffffffffffffffff1673ffffffffffffffffffffffffffffffffffffffff16815260200190815260200160002054915050919050565b60007f990c442e6adb818b8fa7db3cf1023decd07f7b66e5306928c7ed527d974192bb82604051808273ffffffffffffffffffffffffffffffffffffffff1673ffffffffffffffffffffffffffffffffffffffff16815260200191505060405180910390a1600160008373ffffffffffffffffffffffffffffffffffffffff1673ffffffffffffffffffffffffffffffffffffffff16815260200190815260200160002060009054906101000a900460ff16905091905056fea165627a7a7230582010ef1c5efc4118f3f75aff07f707ba9766fdbdfca65d5ecd29f86446310bc2e50029",
  "source": "/*\r\n    This exercise has been updated to use Solidity version 0.5\r\n    Breaking changes from 0.4 to 0.5 can be found here: \r\n    https://solidity.readthedocs.io/en/v0.5.0/050-breaking-changes.html\r\n*/\r\n\r\npragma solidity ^0.5.0;\r\n\r\ncontract SimpleBank {\r\n\r\n    //\r\n    // State variables\r\n    //\r\n    \r\n    /* Fill in the keyword. Hint: We want to protect our users balance from other contracts*/\r\n    mapping (address => uint) private balances;\r\n    \r\n    /* Fill in the keyword. We want to create a getter function and allow contracts to be able to see if a user is enrolled.  */\r\n    mapping (address => bool) public enrolled;\r\n\r\n    /* Let's make sure everyone knows who owns the bank. Use the appropriate keyword for this*/\r\n    address public owner;\r\n    \r\n    //\r\n    // Events - publicize actions to external listeners\r\n    //\r\n    \r\n    /* Add an argument for this event, an accountAddress */\r\n    event LogEnrolled ( address accountAddress );\r\n\r\n    /* Add 2 arguments for this event, an accountAddress and an amount */\r\n    event LogDepositMade ( address accountAddress, uint256 amount );\r\n\r\n    /* Create an event called LogWithdrawal */\r\n    /* Add 3 arguments for this event, an accountAddress, withdrawAmount and a newBalance */\r\n    event LogWithdrawal ( address accountAddress, uint256 withdrawAmount, uint256 newBalance);\r\n\r\n    //\r\n    // Functions\r\n    //\r\n\r\n    /* Use the appropriate global variable to get the sender of the transaction */\r\n    constructor() public {\r\n        /* Set the owner to the creator of this contract */\r\n        owner = msg.sender;\r\n    }\r\n\r\n    /// @notice Get balance\r\n    /// @return The balance of the user\r\n    // A SPECIAL KEYWORD prevents function from editing state variables;\r\n    // allows function to run locally/off blockchain\r\n    function balance() public view returns (uint) {\r\n        /* Get the balance of the sender of this transaction */\r\n        return balances[msg.sender];\r\n    }\r\n\r\n    /// @notice Enroll a customer with the bank\r\n    /// @return The users enrolled status\r\n    // Emit the appropriate event\r\n    function enroll(address accountAddress) public returns (bool){\r\n        emit LogEnrolled(accountAddress);\r\n        \r\n        return enrolled[accountAddress];\r\n    }\r\n\r\n    /// @notice Deposit ether into bank\r\n    /// @return The balance of the user after the deposit is made\r\n    // Add the appropriate keyword so that this function can receive ether\r\n    // Use the appropriate global variables to get the transaction sender and value\r\n    // Emit the appropriate event    \r\n    function deposit(uint256 _amount) public returns (uint) {\r\n        /* Add the amount to the user's balance, call the event associated with a deposit,\r\n          then return the balance of the user */\r\n        uint256 amount = _amount; \r\n        balances[msg.sender] += amount;\r\n\r\n        emit LogDepositMade(msg.sender, amount);\r\n\r\n        return balances[msg.sender];\r\n    }\r\n\r\n    /// @notice Withdraw ether from bank\r\n    /// @dev This does not return any excess ether sent to it\r\n    /// @param withdrawAmount amount you want to withdraw\r\n    /// @return The balance remaining for the user\r\n    // Emit the appropriate event    \r\n    function withdraw(uint withdrawAmount) public returns (uint) {\r\n        /* If the sender's balance is at least the amount they want to withdraw,\r\n            Subtract the amount from the sender's balance, and try to send that amount of ether\r\n            to the user attempting to withdraw. \r\n            return the user's balance.*/\r\n        require(balances[msg.sender] >= withdrawAmount, \"not enough ether\");\r\n        uint256 _withdrawAmount = withdrawAmount;\r\n        balances[msg.sender] -= _withdrawAmount;\r\n        uint256 currBalance = balances[msg.sender];\r\n\r\n        emit LogWithdrawal(msg.sender, withdrawAmount, currBalance);\r\n        return currBalance;\r\n    }\r\n\r\n    // Fallback function - Called if other functions don't match call or\r\n    // sent ether without data\r\n    // Typically, called when invalid data is sent\r\n    // Added so ether sent to this contract is reverted if the contract fails\r\n    // otherwise, the sender's money is transferred to contract\r\n    function() external payable {\r\n        revert();\r\n    }\r\n}\r\n",
  "sourcePath": "C:/Users/joaov/Documents/Consensys/practical/simple-bank-joaopestana/contracts/SimpleBank.sol",
  "compiler": {
    "name": "solc",
    "version": "0.5.0+commit.1d4f565a.Emscripten.clang"
  },
  "schemaVersion": "3.0.1",
  "updatedAt": "2019-01-24T23:50:41.650Z",
  "devdoc": {
    "methods": {
      "balance()": {
        "return": "The balance of the user"
      },
      "deposit(uint256)": {
        "return": "The balance of the user after the deposit is made"
      },
      "enroll(address)": {
        "return": "The users enrolled status"
      },
      "withdraw(uint256)": {
        "return": "The balance remaining for the user"
      }
    }
  },
  "userdoc": {
    "methods": {}
  }
}